{
  "contractName": "ArtisanNFT",
  "abi": [
    {
      "inputs": [],
      "stateMutability": "nonpayable",
      "type": "constructor"
    },
    {
      "anonymous": false,
      "inputs": [
        {
          "indexed": true,
          "internalType": "address",
          "name": "owner",
          "type": "address"
        },
        {
          "indexed": true,
          "internalType": "address",
          "name": "approved",
          "type": "address"
        },
        {
          "indexed": true,
          "internalType": "uint256",
          "name": "tokenId",
          "type": "uint256"
        }
      ],
      "name": "Approval",
      "type": "event"
    },
    {
      "anonymous": false,
      "inputs": [
        {
          "indexed": true,
          "internalType": "address",
          "name": "owner",
          "type": "address"
        },
        {
          "indexed": true,
          "internalType": "address",
          "name": "operator",
          "type": "address"
        },
        {
          "indexed": false,
          "internalType": "bool",
          "name": "approved",
          "type": "bool"
        }
      ],
      "name": "ApprovalForAll",
      "type": "event"
    },
    {
      "anonymous": false,
      "inputs": [
        {
          "indexed": true,
          "internalType": "address",
          "name": "artisan",
          "type": "address"
        },
        {
          "indexed": false,
          "internalType": "string",
          "name": "details",
          "type": "string"
        }
      ],
      "name": "ArtisanRegistered",
      "type": "event"
    },
    {
      "anonymous": false,
      "inputs": [
        {
          "indexed": false,
          "internalType": "uint256",
          "name": "_fromTokenId",
          "type": "uint256"
        },
        {
          "indexed": false,
          "internalType": "uint256",
          "name": "_toTokenId",
          "type": "uint256"
        }
      ],
      "name": "BatchMetadataUpdate",
      "type": "event"
    },
    {
      "anonymous": false,
      "inputs": [
        {
          "indexed": true,
          "internalType": "uint256",
          "name": "tokenId",
          "type": "uint256"
        },
        {
          "indexed": true,
          "internalType": "address",
          "name": "artisan",
          "type": "address"
        },
        {
          "indexed": false,
          "internalType": "string",
          "name": "description",
          "type": "string"
        },
        {
          "indexed": false,
          "internalType": "string",
          "name": "materials",
          "type": "string"
        }
      ],
      "name": "ItemMinted",
      "type": "event"
    },
    {
      "anonymous": false,
      "inputs": [
        {
          "indexed": true,
          "internalType": "uint256",
          "name": "tokenId",
          "type": "uint256"
        },
        {
          "indexed": false,
          "internalType": "bool",
          "name": "verified",
          "type": "bool"
        }
      ],
      "name": "ItemVerified",
      "type": "event"
    },
    {
      "anonymous": false,
      "inputs": [
        {
          "indexed": false,
          "internalType": "uint256",
          "name": "_tokenId",
          "type": "uint256"
        }
      ],
      "name": "MetadataUpdate",
      "type": "event"
    },
    {
      "anonymous": false,
      "inputs": [
        {
          "indexed": true,
          "internalType": "address",
          "name": "previousOwner",
          "type": "address"
        },
        {
          "indexed": true,
          "internalType": "address",
          "name": "newOwner",
          "type": "address"
        }
      ],
      "name": "OwnershipTransferred",
      "type": "event"
    },
    {
      "anonymous": false,
      "inputs": [
        {
          "indexed": true,
          "internalType": "address",
          "name": "from",
          "type": "address"
        },
        {
          "indexed": true,
          "internalType": "address",
          "name": "to",
          "type": "address"
        },
        {
          "indexed": true,
          "internalType": "uint256",
          "name": "tokenId",
          "type": "uint256"
        }
      ],
      "name": "Transfer",
      "type": "event"
    },
    {
      "inputs": [
        {
          "internalType": "address",
          "name": "to",
          "type": "address"
        },
        {
          "internalType": "uint256",
          "name": "tokenId",
          "type": "uint256"
        }
      ],
      "name": "approve",
      "outputs": [],
      "stateMutability": "nonpayable",
      "type": "function"
    },
    {
      "inputs": [
        {
          "internalType": "address",
          "name": "",
          "type": "address"
        }
      ],
      "name": "artisanDetails",
      "outputs": [
        {
          "internalType": "string",
          "name": "",
          "type": "string"
        }
      ],
      "stateMutability": "view",
      "type": "function",
      "constant": true
    },
    {
      "inputs": [
        {
          "internalType": "uint256",
          "name": "",
          "type": "uint256"
        }
      ],
      "name": "artisanItems",
      "outputs": [
        {
          "internalType": "string",
          "name": "description",
          "type": "string"
        },
        {
          "internalType": "string",
          "name": "materials",
          "type": "string"
        },
        {
          "internalType": "uint256",
          "name": "creationDate",
          "type": "uint256"
        },
        {
          "internalType": "address",
          "name": "artisan",
          "type": "address"
        },
        {
          "internalType": "string",
          "name": "ipfsImageHash",
          "type": "string"
        },
        {
          "internalType": "bool",
          "name": "isVerified",
          "type": "bool"
        }
      ],
      "stateMutability": "view",
      "type": "function",
      "constant": true
    },
    {
      "inputs": [
        {
          "internalType": "address",
          "name": "owner",
          "type": "address"
        }
      ],
      "name": "balanceOf",
      "outputs": [
        {
          "internalType": "uint256",
          "name": "",
          "type": "uint256"
        }
      ],
      "stateMutability": "view",
      "type": "function",
      "constant": true
    },
    {
      "inputs": [
        {
          "internalType": "uint256",
          "name": "tokenId",
          "type": "uint256"
        }
      ],
      "name": "burn",
      "outputs": [],
      "stateMutability": "nonpayable",
      "type": "function"
    },
    {
      "inputs": [
        {
          "internalType": "uint256",
          "name": "tokenId",
          "type": "uint256"
        }
      ],
      "name": "getApproved",
      "outputs": [
        {
          "internalType": "address",
          "name": "",
          "type": "address"
        }
      ],
      "stateMutability": "view",
      "type": "function",
      "constant": true
    },
    {
      "inputs": [
        {
          "internalType": "address",
          "name": "owner",
          "type": "address"
        },
        {
          "internalType": "address",
          "name": "operator",
          "type": "address"
        }
      ],
      "name": "isApprovedForAll",
      "outputs": [
        {
          "internalType": "bool",
          "name": "",
          "type": "bool"
        }
      ],
      "stateMutability": "view",
      "type": "function",
      "constant": true
    },
    {
      "inputs": [],
      "name": "name",
      "outputs": [
        {
          "internalType": "string",
          "name": "",
          "type": "string"
        }
      ],
      "stateMutability": "view",
      "type": "function",
      "constant": true
    },
    {
      "inputs": [],
      "name": "owner",
      "outputs": [
        {
          "internalType": "address",
          "name": "",
          "type": "address"
        }
      ],
      "stateMutability": "view",
      "type": "function",
      "constant": true
    },
    {
      "inputs": [
        {
          "internalType": "uint256",
          "name": "tokenId",
          "type": "uint256"
        }
      ],
      "name": "ownerOf",
      "outputs": [
        {
          "internalType": "address",
          "name": "",
          "type": "address"
        }
      ],
      "stateMutability": "view",
      "type": "function",
      "constant": true
    },
    {
      "inputs": [
        {
          "internalType": "address",
          "name": "",
          "type": "address"
        }
      ],
      "name": "registeredArtisans",
      "outputs": [
        {
          "internalType": "bool",
          "name": "",
          "type": "bool"
        }
      ],
      "stateMutability": "view",
      "type": "function",
      "constant": true
    },
    {
      "inputs": [],
      "name": "renounceOwnership",
      "outputs": [],
      "stateMutability": "nonpayable",
      "type": "function"
    },
    {
      "inputs": [
        {
          "internalType": "address",
          "name": "from",
          "type": "address"
        },
        {
          "internalType": "address",
          "name": "to",
          "type": "address"
        },
        {
          "internalType": "uint256",
          "name": "tokenId",
          "type": "uint256"
        }
      ],
      "name": "safeTransferFrom",
      "outputs": [],
      "stateMutability": "nonpayable",
      "type": "function"
    },
    {
      "inputs": [
        {
          "internalType": "address",
          "name": "from",
          "type": "address"
        },
        {
          "internalType": "address",
          "name": "to",
          "type": "address"
        },
        {
          "internalType": "uint256",
          "name": "tokenId",
          "type": "uint256"
        },
        {
          "internalType": "bytes",
          "name": "data",
          "type": "bytes"
        }
      ],
      "name": "safeTransferFrom",
      "outputs": [],
      "stateMutability": "nonpayable",
      "type": "function"
    },
    {
      "inputs": [
        {
          "internalType": "address",
          "name": "operator",
          "type": "address"
        },
        {
          "internalType": "bool",
          "name": "approved",
          "type": "bool"
        }
      ],
      "name": "setApprovalForAll",
      "outputs": [],
      "stateMutability": "nonpayable",
      "type": "function"
    },
    {
      "inputs": [],
      "name": "symbol",
      "outputs": [
        {
          "internalType": "string",
          "name": "",
          "type": "string"
        }
      ],
      "stateMutability": "view",
      "type": "function",
      "constant": true
    },
    {
      "inputs": [
        {
          "internalType": "address",
          "name": "from",
          "type": "address"
        },
        {
          "internalType": "address",
          "name": "to",
          "type": "address"
        },
        {
          "internalType": "uint256",
          "name": "tokenId",
          "type": "uint256"
        }
      ],
      "name": "transferFrom",
      "outputs": [],
      "stateMutability": "nonpayable",
      "type": "function"
    },
    {
      "inputs": [
        {
          "internalType": "address",
          "name": "newOwner",
          "type": "address"
        }
      ],
      "name": "transferOwnership",
      "outputs": [],
      "stateMutability": "nonpayable",
      "type": "function"
    },
    {
      "inputs": [
        {
          "internalType": "address",
          "name": "_artisan",
          "type": "address"
        },
        {
          "internalType": "string",
          "name": "_details",
          "type": "string"
        }
      ],
      "name": "registerArtisan",
      "outputs": [],
      "stateMutability": "nonpayable",
      "type": "function"
    },
    {
      "inputs": [
        {
          "internalType": "string",
          "name": "_tokenURI",
          "type": "string"
        },
        {
          "internalType": "string",
          "name": "_description",
          "type": "string"
        },
        {
          "internalType": "string",
          "name": "_materials",
          "type": "string"
        },
        {
          "internalType": "string",
          "name": "_ipfsImageHash",
          "type": "string"
        }
      ],
      "name": "mintArtisanItem",
      "outputs": [
        {
          "internalType": "uint256",
          "name": "",
          "type": "uint256"
        }
      ],
      "stateMutability": "nonpayable",
      "type": "function"
    },
    {
      "inputs": [
        {
          "internalType": "uint256",
          "name": "_tokenId",
          "type": "uint256"
        },
        {
          "internalType": "bool",
          "name": "_verified",
          "type": "bool"
        }
      ],
      "name": "verifyItem",
      "outputs": [],
      "stateMutability": "nonpayable",
      "type": "function"
    },
    {
      "inputs": [
        {
          "internalType": "uint256",
          "name": "_tokenId",
          "type": "uint256"
        }
      ],
      "name": "getItemDetails",
      "outputs": [
        {
          "internalType": "string",
          "name": "description",
          "type": "string"
        },
        {
          "internalType": "string",
          "name": "materials",
          "type": "string"
        },
        {
          "internalType": "uint256",
          "name": "creationDate",
          "type": "uint256"
        },
        {
          "internalType": "address",
          "name": "artisan",
          "type": "address"
        },
        {
          "internalType": "string",
          "name": "ipfsImageHash",
          "type": "string"
        },
        {
          "internalType": "bool",
          "name": "isVerified",
          "type": "bool"
        }
      ],
      "stateMutability": "view",
      "type": "function",
      "constant": true
    },
    {
      "inputs": [
        {
          "internalType": "address",
          "name": "_artisan",
          "type": "address"
        }
      ],
      "name": "getArtisanDetails",
      "outputs": [
        {
          "internalType": "string",
          "name": "",
          "type": "string"
        }
      ],
      "stateMutability": "view",
      "type": "function",
      "constant": true
    },
    {
      "inputs": [
        {
          "internalType": "address",
          "name": "_artisan",
          "type": "address"
        }
      ],
      "name": "isArtisanRegistered",
      "outputs": [
        {
          "internalType": "bool",
          "name": "",
          "type": "bool"
        }
      ],
      "stateMutability": "view",
      "type": "function",
      "constant": true
    },
    {
      "inputs": [
        {
          "internalType": "bytes4",
          "name": "interfaceId",
          "type": "bytes4"
        }
      ],
      "name": "supportsInterface",
      "outputs": [
        {
          "internalType": "bool",
          "name": "",
          "type": "bool"
        }
      ],
      "stateMutability": "view",
      "type": "function",
      "constant": true
    },
    {
      "inputs": [
        {
          "internalType": "uint256",
          "name": "tokenId",
          "type": "uint256"
        }
      ],
      "name": "tokenURI",
      "outputs": [
        {
          "internalType": "string",
          "name": "",
          "type": "string"
        }
      ],
      "stateMutability": "view",
      "type": "function",
      "constant": true
    }
  ],
  "bytecode": "0x608060405234801562000010575f80fd5b506040518060400160405280601181526020017010da195b9b985a505c9d1a5cd85b939195607a1b8152506040518060400160405280600581526020016410d053919560da1b815250815f908162000069919062000190565b50600162000078828262000190565b505050620000956200008f6200009b60201b60201c565b6200009f565b62000258565b3390565b600780546001600160a01b038381166001600160a01b0319831681179093556040519116919082907f8be0079c531659141344cd1fd0a4f28419497f9722a3daafe3b4186f6b6457e0905f90a35050565b634e487b7160e01b5f52604160045260245ffd5b600181811c908216806200011957607f821691505b6020821081036200013857634e487b7160e01b5f52602260045260245ffd5b50919050565b601f8211156200018b575f81815260208120601f850160051c81016020861015620001665750805b601f850160051c820191505b81811015620001875782815560010162000172565b5050505b505050565b81516001600160401b03811115620001ac57620001ac620000f0565b620001c481620001bd845462000104565b846200013e565b602080601f831160018114620001fa575f8415620001e25750858301515b5f19600386901b1c1916600185901b17855562000187565b5f85815260208120601f198616915b828110156200022a5788860151825594840194600190910190840162000209565b50858210156200024857878501515f19600388901b60f8161c191681555b5050505050600190811b01905550565b61249d80620002665f395ff3fe608060405234801561000f575f80fd5b5060043610610187575f3560e01c806373004ca0116100d9578063c87b56dd11610093578063e985e9c51161006e578063e985e9c514610375578063ea232096146103b0578063f2fde38b146103db578063fcce4de0146103ee575f80fd5b8063c87b56dd1461032d578063dc90736a14610340578063e630e9bc14610362575f80fd5b806373004ca0146102b65780638b671c3a146102db5780638da5cb5b146102ee57806395d89b41146102ff578063a22cb46514610307578063b88d4fde1461031a575f80fd5b80631f5c33fc1161014457806342966c681161011f57806342966c68146102755780636352211e1461028857806370a082311461029b578063715018a6146102ae575f80fd5b80631f5c33fc1461022e57806323b872dd1461024f57806342842e0e14610262575f80fd5b806301ffc9a71461018b57806303ddc1ed146101b357806306fdde03146101d3578063081812fc146101db578063095ea7b3146102065780631d601a211461021b575b5f80fd5b61019e610199366004611d7c565b610401565b60405190151581526020015b60405180910390f35b6101c66101c1366004611db2565b610411565b6040516101aa9190611e18565b6101c66104a8565b6101ee6101e9366004611e2a565b610537565b6040516001600160a01b0390911681526020016101aa565b610219610214366004611e41565b61055c565b005b6101c6610229366004611db2565b610675565b61024161023c366004611f0e565b61077f565b6040519081526020016101aa565b61021961025d366004611fb4565b61090e565b610219610270366004611fb4565b610940565b610219610283366004611e2a565b61095a565b6101ee610296366004611e2a565b61098b565b6102416102a9366004611db2565b6109ea565b610219610a6e565b6102c96102c4366004611e2a565b610a81565b6040516101aa96959493929190611fed565b6102196102e9366004612060565b610cfc565b6007546001600160a01b03166101ee565b6101c6610da9565b61021961031536600461208a565b610db8565b6102196103283660046120b2565b610dc7565b6101c661033b366004611e2a565b610dff565b61019e61034e366004611db2565b60096020525f908152604090205460ff1681565b61021961037036600461211d565b610e0a565b61019e610383366004612168565b6001600160a01b039182165f90815260056020908152604080832093909416825291909152205460ff1690565b61019e6103be366004611db2565b6001600160a01b03165f9081526009602052604090205460ff1690565b6102196103e9366004611db2565b610e82565b6102c96103fc366004611e2a565b610ef8565b5f61040b826110ce565b92915050565b600a6020525f90815260409020805461042990612190565b80601f016020809104026020016040519081016040528092919081815260200182805461045590612190565b80156104a05780601f10610477576101008083540402835291602001916104a0565b820191905f5260205f20905b81548152906001019060200180831161048357829003601f168201915b505050505081565b60605f80546104b690612190565b80601f01602080910402602001604051908101604052809291908181526020018280546104e290612190565b801561052d5780601f106105045761010080835404028352916020019161052d565b820191905f5260205f20905b81548152906001019060200180831161051057829003601f168201915b5050505050905090565b5f610541826110f2565b505f908152600460205260409020546001600160a01b031690565b5f6105668261098b565b9050806001600160a01b0316836001600160a01b0316036105d85760405162461bcd60e51b815260206004820152602160248201527f4552433732313a20617070726f76616c20746f2063757272656e74206f776e656044820152603960f91b60648201526084015b60405180910390fd5b336001600160a01b03821614806105f457506105f48133610383565b6106665760405162461bcd60e51b815260206004820152603d60248201527f4552433732313a20617070726f76652063616c6c6572206973206e6f7420746f60448201527f6b656e206f776e6572206f7220617070726f76656420666f7220616c6c00000060648201526084016105cf565b6106708383611142565b505050565b6001600160a01b0381165f9081526009602052604090205460609060ff166106da5760405162461bcd60e51b81526020600482015260186024820152772737ba1030903932b3b4b9ba32b932b21030b93a34b9b0b760411b60448201526064016105cf565b6001600160a01b0382165f908152600a6020526040902080546106fc90612190565b80601f016020809104026020016040519081016040528092919081815260200182805461072890612190565b80156107735780601f1061074a57610100808354040283529160200191610773565b820191905f5260205f20905b81548152906001019060200180831161075657829003601f168201915b50505050509050919050565b335f9081526009602052604081205460ff166107d85760405162461bcd60e51b81526020600482015260186024820152772737ba1030903932b3b4b9ba32b932b21030b93a34b9b0b760411b60448201526064016105cf565b5f6107e260085490565b90506107f2600880546001019055565b6107fc33826111af565b61080681876111c8565b6040805160c08101825286815260208082018790524282840152336060830152608082018690525f60a08301819052848152600b909152919091208151819061084f9082612215565b50602082015160018201906108649082612215565b506040820151600282015560608201516003820180546001600160a01b0319166001600160a01b03909216919091179055608082015160048201906108a99082612215565b5060a091909101516005909101805460ff1916911515919091179055604051339082907fe3ccd2ffaf9d04d643e51253c4528dadb283b21437ff6428f5d66993cdd31eb5906108fb90899089906122d1565b60405180910390a390505b949350505050565b610919335b82611283565b6109355760405162461bcd60e51b81526004016105cf906122fe565b6106708383836112ff565b61067083838360405180602001604052805f815250610dc7565b61096333610913565b61097f5760405162461bcd60e51b81526004016105cf906122fe565b61098881611461565b50565b5f818152600260205260408120546001600160a01b03168061040b5760405162461bcd60e51b8152602060048201526018602482015277115490cdcc8c4e881a5b9d985b1a59081d1bdad95b88125160421b60448201526064016105cf565b5f6001600160a01b038216610a535760405162461bcd60e51b815260206004820152602960248201527f4552433732313a2061646472657373207a65726f206973206e6f7420612076616044820152683634b21037bbb732b960b91b60648201526084016105cf565b506001600160a01b03165f9081526003602052604090205490565b610a766114c6565b610a7f5f611520565b565b6060805f8060605f610a9287611571565b610ad45760405162461bcd60e51b8152602060048201526013602482015272125d195b48191bd95cc81b9bdd08195e1a5cdd606a1b60448201526064016105cf565b5f878152600b6020526040808220815160c08101909252805482908290610afa90612190565b80601f0160208091040260200160405190810160405280929190818152602001828054610b2690612190565b8015610b715780601f10610b4857610100808354040283529160200191610b71565b820191905f5260205f20905b815481529060010190602001808311610b5457829003601f168201915b50505050508152602001600182018054610b8a90612190565b80601f0160208091040260200160405190810160405280929190818152602001828054610bb690612190565b8015610c015780601f10610bd857610100808354040283529160200191610c01565b820191905f5260205f20905b815481529060010190602001808311610be457829003601f168201915b50505091835250506002820154602082015260038201546001600160a01b03166040820152600482018054606090920191610c3b90612190565b80601f0160208091040260200160405190810160405280929190818152602001828054610c6790612190565b8015610cb25780601f10610c8957610100808354040283529160200191610cb2565b820191905f5260205f20905b815481529060010190602001808311610c9557829003601f168201915b50505091835250506005919091015460ff16151560209182015281519082015160408301516060840151608085015160a090950151939d929c50909a509850919650945092505050565b610d046114c6565b610d0d82611571565b610d4f5760405162461bcd60e51b8152602060048201526013602482015272125d195b48191bd95cc81b9bdd08195e1a5cdd606a1b60448201526064016105cf565b5f828152600b6020908152604091829020600501805460ff1916841515908117909155915191825283917f35138164090389145ab6ac60d79da4c3e9ac7dad90179b50360664d0fd21f45391015b60405180910390a25050565b6060600180546104b690612190565b610dc333838361158d565b5050565b610dd13383611283565b610ded5760405162461bcd60e51b81526004016105cf906122fe565b610df98484848461165a565b50505050565b606061040b8261168d565b610e126114c6565b6001600160a01b0382165f908152600960209081526040808320805460ff19166001179055600a9091529020610e488282612215565b50816001600160a01b03167fcbdaa7c4fc307de372ed1c536f4901f771ac7e14fe243d6fbd7b4826a439f74c82604051610d9d9190611e18565b610e8a6114c6565b6001600160a01b038116610eef5760405162461bcd60e51b815260206004820152602660248201527f4f776e61626c653a206e6577206f776e657220697320746865207a65726f206160448201526564647265737360d01b60648201526084016105cf565b61098881611520565b600b6020525f9081526040902080548190610f1290612190565b80601f0160208091040260200160405190810160405280929190818152602001828054610f3e90612190565b8015610f895780601f10610f6057610100808354040283529160200191610f89565b820191905f5260205f20905b815481529060010190602001808311610f6c57829003601f168201915b505050505090806001018054610f9e90612190565b80601f0160208091040260200160405190810160405280929190818152602001828054610fca90612190565b80156110155780601f10610fec57610100808354040283529160200191611015565b820191905f5260205f20905b815481529060010190602001808311610ff857829003601f168201915b5050505060028301546003840154600485018054949592946001600160a01b0390921693509061104490612190565b80601f016020809104026020016040519081016040528092919081815260200182805461107090612190565b80156110bb5780601f10611092576101008083540402835291602001916110bb565b820191905f5260205f20905b81548152906001019060200180831161109e57829003601f168201915b5050506005909301549192505060ff1686565b5f6001600160e01b03198216632483248360e11b148061040b575061040b8261178f565b6110fb81611571565b6109885760405162461bcd60e51b8152602060048201526018602482015277115490cdcc8c4e881a5b9d985b1a59081d1bdad95b88125160421b60448201526064016105cf565b5f81815260046020526040902080546001600160a01b0319166001600160a01b03841690811790915581906111768261098b565b6001600160a01b03167f8c5be1e5ebec7d5bd14f71427d1e84f3dd0314c0f7b2291e5b200ac8c7c3b92560405160405180910390a45050565b610dc3828260405180602001604052805f8152506117de565b6111d182611571565b6112345760405162461bcd60e51b815260206004820152602e60248201527f45524337323155524953746f726167653a2055524920736574206f66206e6f6e60448201526d32bc34b9ba32b73a103a37b5b2b760911b60648201526084016105cf565b5f82815260066020526040902061124b8282612215565b506040518281527ff8e1a15aba9398e019f0b49df1a4fde98ee17ae345cb5f6b5e2c27f5033e8ce79060200160405180910390a15050565b5f8061128e8361098b565b9050806001600160a01b0316846001600160a01b031614806112d457506001600160a01b038082165f9081526005602090815260408083209388168352929052205460ff165b806109065750836001600160a01b03166112ed84610537565b6001600160a01b031614949350505050565b826001600160a01b03166113128261098b565b6001600160a01b0316146113385760405162461bcd60e51b81526004016105cf9061234b565b6001600160a01b03821661139a5760405162461bcd60e51b8152602060048201526024808201527f4552433732313a207472616e7366657220746f20746865207a65726f206164646044820152637265737360e01b60648201526084016105cf565b826001600160a01b03166113ad8261098b565b6001600160a01b0316146113d35760405162461bcd60e51b81526004016105cf9061234b565b5f81815260046020908152604080832080546001600160a01b03199081169091556001600160a01b038781168086526003855283862080545f1901905590871680865283862080546001019055868652600290945282852080549092168417909155905184937fddf252ad1be2c89b69c2b068fc378daa952ba7f163c4a11628f55a4df523b3ef91a4505050565b61146a81611810565b5f818152600b60205260408120906114828282611d1d565b61148f600183015f611d1d565b5f600283018190556003830180546001600160a01b03191690556114b7906004840190611d1d565b50600501805460ff1916905550565b6007546001600160a01b03163314610a7f5760405162461bcd60e51b815260206004820181905260248201527f4f776e61626c653a2063616c6c6572206973206e6f7420746865206f776e657260448201526064016105cf565b600780546001600160a01b038381166001600160a01b0319831681179093556040519116919082907f8be0079c531659141344cd1fd0a4f28419497f9722a3daafe3b4186f6b6457e0905f90a35050565b5f908152600260205260409020546001600160a01b0316151590565b816001600160a01b0316836001600160a01b0316036115ee5760405162461bcd60e51b815260206004820152601960248201527f4552433732313a20617070726f766520746f2063616c6c65720000000000000060448201526064016105cf565b6001600160a01b038381165f81815260056020908152604080832094871680845294825291829020805460ff191686151590811790915591519182527f17307eab39ab6107e8899845ad3d59bd9653f200f220920489ca2b5937696c31910160405180910390a3505050565b6116658484846112ff565b6116718484848461184e565b610df95760405162461bcd60e51b81526004016105cf90612390565b6060611698826110f2565b5f82815260066020526040812080546116b090612190565b80601f01602080910402602001604051908101604052809291908181526020018280546116dc90612190565b80156117275780601f106116fe57610100808354040283529160200191611727565b820191905f5260205f20905b81548152906001019060200180831161170a57829003601f168201915b505050505090505f61174360408051602081019091525f815290565b905080515f03611754575092915050565b81511561178657808260405160200161176e9291906123e2565b60405160208183030381529060405292505050919050565b61090684611948565b5f6001600160e01b031982166380ac58cd60e01b14806117bf57506001600160e01b03198216635b5e139f60e01b145b8061040b57506301ffc9a760e01b6001600160e01b031983161461040b565b6117e883836119b8565b6117f45f84848461184e565b6106705760405162461bcd60e51b81526004016105cf90612390565b61181981611b24565b5f818152600660205260409020805461183190612190565b159050610988575f81815260066020526040812061098891611d1d565b5f6001600160a01b0384163b1561194057604051630a85bd0160e11b81526001600160a01b0385169063150b7a0290611891903390899088908890600401612410565b6020604051808303815f875af19250505080156118cb575060408051601f3d908101601f191682019092526118c89181019061244c565b60015b611926573d8080156118f8576040519150601f19603f3d011682016040523d82523d5f602084013e6118fd565b606091505b5080515f0361191e5760405162461bcd60e51b81526004016105cf90612390565b805181602001fd5b6001600160e01b031916630a85bd0160e11b149050610906565b506001610906565b6060611953826110f2565b5f61196860408051602081019091525f815290565b90505f8151116119865760405180602001604052805f8152506119b1565b8061199084611bb6565b6040516020016119a19291906123e2565b6040516020818303038152906040525b9392505050565b6001600160a01b038216611a0e5760405162461bcd60e51b815260206004820181905260248201527f4552433732313a206d696e7420746f20746865207a65726f206164647265737360448201526064016105cf565b611a1781611571565b15611a645760405162461bcd60e51b815260206004820152601c60248201527f4552433732313a20746f6b656e20616c7265616479206d696e7465640000000060448201526064016105cf565b611a6d81611571565b15611aba5760405162461bcd60e51b815260206004820152601c60248201527f4552433732313a20746f6b656e20616c7265616479206d696e7465640000000060448201526064016105cf565b6001600160a01b0382165f81815260036020908152604080832080546001019055848352600290915280822080546001600160a01b0319168417905551839291907fddf252ad1be2c89b69c2b068fc378daa952ba7f163c4a11628f55a4df523b3ef908290a45050565b5f611b2e8261098b565b9050611b398261098b565b5f83815260046020908152604080832080546001600160a01b03199081169091556001600160a01b0385168085526003845282852080545f190190558785526002909352818420805490911690555192935084927fddf252ad1be2c89b69c2b068fc378daa952ba7f163c4a11628f55a4df523b3ef908390a45050565b60605f611bc283611c46565b60010190505f8167ffffffffffffffff811115611be157611be1611e69565b6040519080825280601f01601f191660200182016040528015611c0b576020820181803683370190505b5090508181016020015b5f19016f181899199a1a9b1b9c1cb0b131b232b360811b600a86061a8153600a8504945084611c1557509392505050565b5f8072184f03e93ff9f4daa797ed6e38ed64bf6a1f0160401b8310611c845772184f03e93ff9f4daa797ed6e38ed64bf6a1f0160401b830492506040015b6d04ee2d6d415b85acef81000000008310611cb0576d04ee2d6d415b85acef8100000000830492506020015b662386f26fc100008310611cce57662386f26fc10000830492506010015b6305f5e1008310611ce6576305f5e100830492506008015b6127108310611cfa57612710830492506004015b60648310611d0c576064830492506002015b600a831061040b5760010192915050565b508054611d2990612190565b5f825580601f10611d38575050565b601f0160209004905f5260205f209081019061098891905b80821115611d63575f8155600101611d50565b5090565b6001600160e01b031981168114610988575f80fd5b5f60208284031215611d8c575f80fd5b81356119b181611d67565b80356001600160a01b0381168114611dad575f80fd5b919050565b5f60208284031215611dc2575f80fd5b6119b182611d97565b5f5b83811015611de5578181015183820152602001611dcd565b50505f910152565b5f8151808452611e04816020860160208601611dcb565b601f01601f19169290920160200192915050565b602081525f6119b16020830184611ded565b5f60208284031215611e3a575f80fd5b5035919050565b5f8060408385031215611e52575f80fd5b611e5b83611d97565b946020939093013593505050565b634e487b7160e01b5f52604160045260245ffd5b5f67ffffffffffffffff80841115611e9757611e97611e69565b604051601f8501601f19908116603f01168101908282118183101715611ebf57611ebf611e69565b81604052809350858152868686011115611ed7575f80fd5b858560208301375f602087830101525050509392505050565b5f82601f830112611eff575f80fd5b6119b183833560208501611e7d565b5f805f8060808587031215611f21575f80fd5b843567ffffffffffffffff80821115611f38575f80fd5b611f4488838901611ef0565b95506020870135915080821115611f59575f80fd5b611f6588838901611ef0565b94506040870135915080821115611f7a575f80fd5b611f8688838901611ef0565b93506060870135915080821115611f9b575f80fd5b50611fa887828801611ef0565b91505092959194509250565b5f805f60608486031215611fc6575f80fd5b611fcf84611d97565b9250611fdd60208501611d97565b9150604084013590509250925092565b60c081525f611fff60c0830189611ded565b82810360208401526120118189611ded565b604084018890526001600160a01b03871660608501528381036080850152905061203b8186611ded565b91505082151560a0830152979650505050505050565b80358015158114611dad575f80fd5b5f8060408385031215612071575f80fd5b8235915061208160208401612051565b90509250929050565b5f806040838503121561209b575f80fd5b6120a483611d97565b915061208160208401612051565b5f805f80608085870312156120c5575f80fd5b6120ce85611d97565b93506120dc60208601611d97565b925060408501359150606085013567ffffffffffffffff8111156120fe575f80fd5b8501601f8101871361210e575f80fd5b611fa887823560208401611e7d565b5f806040838503121561212e575f80fd5b61213783611d97565b9150602083013567ffffffffffffffff811115612152575f80fd5b61215e85828601611ef0565b9150509250929050565b5f8060408385031215612179575f80fd5b61218283611d97565b915061208160208401611d97565b600181811c908216806121a457607f821691505b6020821081036121c257634e487b7160e01b5f52602260045260245ffd5b50919050565b601f821115610670575f81815260208120601f850160051c810160208610156121ee5750805b601f850160051c820191505b8181101561220d578281556001016121fa565b505050505050565b815167ffffffffffffffff81111561222f5761222f611e69565b6122438161223d8454612190565b846121c8565b602080601f831160018114612276575f841561225f5750858301515b5f19600386901b1c1916600185901b17855561220d565b5f85815260208120601f198616915b828110156122a457888601518255948401946001909101908401612285565b50858210156122c157878501515f19600388901b60f8161c191681555b5050505050600190811b01905550565b604081525f6122e36040830185611ded565b82810360208401526122f58185611ded565b95945050505050565b6020808252602d908201527f4552433732313a2063616c6c6572206973206e6f7420746f6b656e206f776e6560408201526c1c881bdc88185c1c1c9bdd9959609a1b606082015260800190565b60208082526025908201527f4552433732313a207472616e736665722066726f6d20696e636f72726563742060408201526437bbb732b960d91b606082015260800190565b60208082526032908201527f4552433732313a207472616e7366657220746f206e6f6e20455243373231526560408201527131b2b4bb32b91034b6b83632b6b2b73a32b960711b606082015260800190565b5f83516123f3818460208801611dcb565b835190830190612407818360208801611dcb565b01949350505050565b6001600160a01b03858116825284166020820152604081018390526080606082018190525f9061244290830184611ded565b9695505050505050565b5f6020828403121561245c575f80fd5b81516119b181611d6756fea2646970667358221220a489f0869bb8ef5a63df818f96e07c220e3aca64130f86f92219ac8fdcef70ed64736f6c63430008150033",
  "immutableReferences": {},
  "source": "// SPDX-License-Identifier: MIT\r\npragma solidity ^0.8.0;\r\n\r\nimport \"./node_modules/@openzeppelin/contracts/token/ERC721/extensions/ERC721URIStorage.sol\";\r\nimport \"./node_modules/@openzeppelin/contracts/access/Ownable.sol\";\r\nimport \"./node_modules/@openzeppelin/contracts/utils/Counters.sol\";\r\nimport \"./node_modules/@openzeppelin/contracts/token/ERC721/extensions/ERC721Burnable.sol\";\r\n\r\ncontract ArtisanNFT is ERC721URIStorage, Ownable, ERC721Burnable {\r\n    using Counters for Counters.Counter;\r\n    Counters.Counter private _tokenIdCounter;\r\n\r\n    // Artisan registration\r\n    mapping(address => bool) public registeredArtisans;\r\n    mapping(address => string) public artisanDetails; // Name, location, specialty\r\n\r\n    // Item metadata\r\n    struct ArtisanItem {\r\n        string description;\r\n        string materials;\r\n        uint256 creationDate;\r\n        address artisan;\r\n        string ipfsImageHash;\r\n        bool isVerified;\r\n    }\r\n\r\n    // Mapping from token ID to item metadata\r\n    mapping(uint256 => ArtisanItem) public artisanItems;\r\n\r\n    // Events\r\n    event ArtisanRegistered(address indexed artisan, string details);\r\n    event ItemMinted(uint256 indexed tokenId, address indexed artisan, string description, string materials);\r\n    event ItemVerified(uint256 indexed tokenId, bool verified);\r\n\r\n    constructor() ERC721(\"ChennaiArtisanNFT\", \"CANFT\") {\r\n        // Initialize with contract deployer as owner\r\n    }\r\n\r\n    modifier onlyArtisan() {\r\n        require(registeredArtisans[msg.sender], \"Not a registered artisan\");\r\n        _;\r\n    }\r\n\r\n    function registerArtisan(address _artisan, string memory _details) public onlyOwner {\r\n        registeredArtisans[_artisan] = true;\r\n        artisanDetails[_artisan] = _details;\r\n        emit ArtisanRegistered(_artisan, _details);\r\n    }\r\n\r\n    function mintArtisanItem(\r\n        string memory _tokenURI,\r\n        string memory _description,\r\n        string memory _materials,\r\n        string memory _ipfsImageHash\r\n    ) public onlyArtisan returns (uint256) {\r\n        uint256 tokenId = _tokenIdCounter.current();\r\n        _tokenIdCounter.increment();\r\n\r\n        _safeMint(msg.sender, tokenId);\r\n        _setTokenURI(tokenId, _tokenURI);\r\n\r\n        // Store item metadata\r\n        artisanItems[tokenId] = ArtisanItem({\r\n            description: _description,\r\n            materials: _materials,\r\n            creationDate: block.timestamp,\r\n            artisan: msg.sender,\r\n            ipfsImageHash: _ipfsImageHash,\r\n            isVerified: false\r\n        });\r\n\r\n        emit ItemMinted(tokenId, msg.sender, _description, _materials);\r\n\r\n        return tokenId;\r\n    }\r\n\r\n    function verifyItem(uint256 _tokenId, bool _verified) public onlyOwner {\r\n        require(_exists(_tokenId), \"Item does not exist\");\r\n        artisanItems[_tokenId].isVerified = _verified;\r\n        emit ItemVerified(_tokenId, _verified);\r\n    }\r\n\r\n    function getItemDetails(uint256 _tokenId) public view returns (\r\n        string memory description,\r\n        string memory materials,\r\n        uint256 creationDate,\r\n        address artisan,\r\n        string memory ipfsImageHash,\r\n        bool isVerified\r\n    ) {\r\n        require(_exists(_tokenId), \"Item does not exist\");\r\n        ArtisanItem memory item = artisanItems[_tokenId];\r\n\r\n        return (\r\n            item.description,\r\n            item.materials,\r\n            item.creationDate,\r\n            item.artisan,\r\n            item.ipfsImageHash,\r\n            item.isVerified\r\n        );\r\n    }\r\n\r\n    function getArtisanDetails(address _artisan) public view returns (string memory) {\r\n        require(registeredArtisans[_artisan], \"Not a registered artisan\");\r\n        return artisanDetails[_artisan];\r\n    }\r\n\r\n    function isArtisanRegistered(address _artisan) public view returns (bool) {\r\n        return registeredArtisans[_artisan];\r\n    }\r\n\r\n    function supportsInterface(bytes4 interfaceId) public view virtual override(ERC721, ERC721URIStorage) returns (bool) {\r\n        return super.supportsInterface(interfaceId);\r\n    }\r\n\r\n    function tokenURI(uint256 tokenId) public view virtual override(ERC721, ERC721URIStorage) returns (string memory) {\r\n        return super.tokenURI(tokenId);\r\n    }\r\n\r\n    function _burn(uint256 tokenId) internal virtual override(ERC721, ERC721URIStorage) {\r\n        super._burn(tokenId);\r\n        delete artisanItems[tokenId];\r\n    }\r\n}\r\n",
  "sourcePath": "C:\\Users\\wwwst\\OneDrive\\Desktop\\CBT\\artisanal\\contracts\\ArtisanNFT.sol",
  "compiler": {
    "name": "solc",
    "version": "0.8.21+commit.d9974bed.Emscripten.clang"
  },
  "schemaVersion": "3.4.16",
  "updatedAt": "2025-04-29T19:37:24.861Z",
  "networkType": "ethereum",
  "devdoc": {
    "events": {
      "Approval(address,address,uint256)": {
        "details": "Emitted when `owner` enables `approved` to manage the `tokenId` token."
      },
      "ApprovalForAll(address,address,bool)": {
        "details": "Emitted when `owner` enables or disables (`approved`) `operator` to manage all of its assets."
      },
      "BatchMetadataUpdate(uint256,uint256)": {
        "details": "This event emits when the metadata of a range of tokens is changed. So that the third-party platforms such as NFT market could timely update the images and related attributes of the NFTs."
      },
      "MetadataUpdate(uint256)": {
        "details": "This event emits when the metadata of a token is changed. So that the third-party platforms such as NFT market could timely update the images and related attributes of the NFT."
      },
      "Transfer(address,address,uint256)": {
        "details": "Emitted when `tokenId` token is transferred from `from` to `to`."
      }
    },
    "kind": "dev",
    "methods": {
      "approve(address,uint256)": {
        "details": "See {IERC721-approve}."
      },
      "balanceOf(address)": {
        "details": "See {IERC721-balanceOf}."
      },
      "burn(uint256)": {
        "details": "Burns `tokenId`. See {ERC721-_burn}. Requirements: - The caller must own `tokenId` or be an approved operator."
      },
      "getApproved(uint256)": {
        "details": "See {IERC721-getApproved}."
      },
      "isApprovedForAll(address,address)": {
        "details": "See {IERC721-isApprovedForAll}."
      },
      "name()": {
        "details": "See {IERC721Metadata-name}."
      },
      "owner()": {
        "details": "Returns the address of the current owner."
      },
      "ownerOf(uint256)": {
        "details": "See {IERC721-ownerOf}."
      },
      "renounceOwnership()": {
        "details": "Leaves the contract without owner. It will not be possible to call `onlyOwner` functions. Can only be called by the current owner. NOTE: Renouncing ownership will leave the contract without an owner, thereby disabling any functionality that is only available to the owner."
      },
      "safeTransferFrom(address,address,uint256)": {
        "details": "See {IERC721-safeTransferFrom}."
      },
      "safeTransferFrom(address,address,uint256,bytes)": {
        "details": "See {IERC721-safeTransferFrom}."
      },
      "setApprovalForAll(address,bool)": {
        "details": "See {IERC721-setApprovalForAll}."
      },
      "symbol()": {
        "details": "See {IERC721Metadata-symbol}."
      },
      "transferFrom(address,address,uint256)": {
        "details": "See {IERC721-transferFrom}."
      },
      "transferOwnership(address)": {
        "details": "Transfers ownership of the contract to a new account (`newOwner`). Can only be called by the current owner."
      }
    },
    "version": 1
  },
  "userdoc": {
    "kind": "user",
    "methods": {},
    "version": 1
  }
}